{
  "_format": "hh-sol-artifact-1",
  "contractName": "Safe",
  "sourceName": "@safe-contracts/contracts/Safe.sol",
  "abi": [
    {
      "inputs": [],
      "stateMutability": "nonpayable",
      "type": "constructor"
    },
    {
      "anonymous": false,
      "inputs": [
        {
          "indexed": false,
          "internalType": "address",
          "name": "owner",
          "type": "address"
        }
      ],
      "name": "AddedOwner",
      "type": "event"
    },
    {
      "anonymous": false,
      "inputs": [
        {
          "indexed": true,
          "internalType": "bytes32",
          "name": "approvedHash",
          "type": "bytes32"
        },
        {
          "indexed": true,
          "internalType": "address",
          "name": "owner",
          "type": "address"
        }
      ],
      "name": "ApproveHash",
      "type": "event"
    },
    {
      "anonymous": false,
      "inputs": [
        {
          "indexed": false,
          "internalType": "address",
          "name": "handler",
          "type": "address"
        }
      ],
      "name": "ChangedFallbackHandler",
      "type": "event"
    },
    {
      "anonymous": false,
      "inputs": [
        {
          "indexed": false,
          "internalType": "address",
          "name": "guard",
          "type": "address"
        }
      ],
      "name": "ChangedGuard",
      "type": "event"
    },
    {
      "anonymous": false,
      "inputs": [
        {
          "indexed": false,
          "internalType": "uint256",
          "name": "threshold",
          "type": "uint256"
        }
      ],
      "name": "ChangedThreshold",
      "type": "event"
    },
    {
      "anonymous": false,
      "inputs": [
        {
          "indexed": false,
          "internalType": "address",
          "name": "module",
          "type": "address"
        }
      ],
      "name": "DisabledModule",
      "type": "event"
    },
    {
      "anonymous": false,
      "inputs": [
        {
          "indexed": false,
          "internalType": "address",
          "name": "module",
          "type": "address"
        }
      ],
      "name": "EnabledModule",
      "type": "event"
    },
    {
      "anonymous": false,
      "inputs": [
        {
          "indexed": false,
          "internalType": "bytes32",
          "name": "txHash",
          "type": "bytes32"
        },
        {
          "indexed": false,
          "internalType": "uint256",
          "name": "payment",
          "type": "uint256"
        }
      ],
      "name": "ExecutionFailure",
      "type": "event"
    },
    {
      "anonymous": false,
      "inputs": [
        {
          "indexed": true,
          "internalType": "address",
          "name": "module",
          "type": "address"
        }
      ],
      "name": "ExecutionFromModuleFailure",
      "type": "event"
    },
    {
      "anonymous": false,
      "inputs": [
        {
          "indexed": true,
          "internalType": "address",
          "name": "module",
          "type": "address"
        }
      ],
      "name": "ExecutionFromModuleSuccess",
      "type": "event"
    },
    {
      "anonymous": false,
      "inputs": [
        {
          "indexed": false,
          "internalType": "bytes32",
          "name": "txHash",
          "type": "bytes32"
        },
        {
          "indexed": false,
          "internalType": "uint256",
          "name": "payment",
          "type": "uint256"
        }
      ],
      "name": "ExecutionSuccess",
      "type": "event"
    },
    {
      "anonymous": false,
      "inputs": [
        {
          "indexed": false,
          "internalType": "address",
          "name": "owner",
          "type": "address"
        }
      ],
      "name": "RemovedOwner",
      "type": "event"
    },
    {
      "anonymous": false,
      "inputs": [
        {
          "indexed": true,
          "internalType": "address",
          "name": "sender",
          "type": "address"
        },
        {
          "indexed": false,
          "internalType": "uint256",
          "name": "value",
          "type": "uint256"
        }
      ],
      "name": "SafeReceived",
      "type": "event"
    },
    {
      "anonymous": false,
      "inputs": [
        {
          "indexed": true,
          "internalType": "address",
          "name": "initiator",
          "type": "address"
        },
        {
          "indexed": false,
          "internalType": "address[]",
          "name": "owners",
          "type": "address[]"
        },
        {
          "indexed": false,
          "internalType": "uint256",
          "name": "threshold",
          "type": "uint256"
        },
        {
          "indexed": false,
          "internalType": "address",
          "name": "initializer",
          "type": "address"
        },
        {
          "indexed": false,
          "internalType": "address",
          "name": "fallbackHandler",
          "type": "address"
        }
      ],
      "name": "SafeSetup",
      "type": "event"
    },
    {
      "anonymous": false,
      "inputs": [
        {
          "indexed": true,
          "internalType": "bytes32",
          "name": "msgHash",
          "type": "bytes32"
        }
      ],
      "name": "SignMsg",
      "type": "event"
    },
    {
      "stateMutability": "nonpayable",
      "type": "fallback"
    },
    {
      "inputs": [],
      "name": "VERSION",
      "outputs": [
        {
          "internalType": "string",
          "name": "",
          "type": "string"
        }
      ],
      "stateMutability": "view",
      "type": "function"
    },
    {
      "inputs": [
        {
          "internalType": "address",
          "name": "owner",
          "type": "address"
        },
        {
          "internalType": "uint256",
          "name": "_threshold",
          "type": "uint256"
        }
      ],
      "name": "addOwnerWithThreshold",
      "outputs": [],
      "stateMutability": "nonpayable",
      "type": "function"
    },
    {
      "inputs": [
        {
          "internalType": "bytes32",
          "name": "hashToApprove",
          "type": "bytes32"
        }
      ],
      "name": "approveHash",
      "outputs": [],
      "stateMutability": "nonpayable",
      "type": "function"
    },
    {
      "inputs": [
        {
          "internalType": "address",
          "name": "",
          "type": "address"
        },
        {
          "internalType": "bytes32",
          "name": "",
          "type": "bytes32"
        }
      ],
      "name": "approvedHashes",
      "outputs": [
        {
          "internalType": "uint256",
          "name": "",
          "type": "uint256"
        }
      ],
      "stateMutability": "view",
      "type": "function"
    },
    {
      "inputs": [
        {
          "internalType": "uint256",
          "name": "_threshold",
          "type": "uint256"
        }
      ],
      "name": "changeThreshold",
      "outputs": [],
      "stateMutability": "nonpayable",
      "type": "function"
    },
    {
      "inputs": [
        {
          "internalType": "bytes32",
          "name": "dataHash",
          "type": "bytes32"
        },
        {
          "internalType": "bytes",
          "name": "data",
          "type": "bytes"
        },
        {
          "internalType": "bytes",
          "name": "signatures",
          "type": "bytes"
        },
        {
          "internalType": "uint256",
          "name": "requiredSignatures",
          "type": "uint256"
        }
      ],
      "name": "checkNSignatures",
      "outputs": [],
      "stateMutability": "view",
      "type": "function"
    },
    {
      "inputs": [
        {
          "internalType": "bytes32",
          "name": "dataHash",
          "type": "bytes32"
        },
        {
          "internalType": "bytes",
          "name": "data",
          "type": "bytes"
        },
        {
          "internalType": "bytes",
          "name": "signatures",
          "type": "bytes"
        }
      ],
      "name": "checkSignatures",
      "outputs": [],
      "stateMutability": "view",
      "type": "function"
    },
    {
      "inputs": [
        {
          "internalType": "address",
          "name": "prevModule",
          "type": "address"
        },
        {
          "internalType": "address",
          "name": "module",
          "type": "address"
        }
      ],
      "name": "disableModule",
      "outputs": [],
      "stateMutability": "nonpayable",
      "type": "function"
    },
    {
      "inputs": [],
      "name": "domainSeparator",
      "outputs": [
        {
          "internalType": "bytes32",
          "name": "",
          "type": "bytes32"
        }
      ],
      "stateMutability": "view",
      "type": "function"
    },
    {
      "inputs": [
        {
          "internalType": "address",
          "name": "module",
          "type": "address"
        }
      ],
      "name": "enableModule",
      "outputs": [],
      "stateMutability": "nonpayable",
      "type": "function"
    },
    {
      "inputs": [
        {
          "internalType": "address",
          "name": "to",
          "type": "address"
        },
        {
          "internalType": "uint256",
          "name": "value",
          "type": "uint256"
        },
        {
          "internalType": "bytes",
          "name": "data",
          "type": "bytes"
        },
        {
          "internalType": "enum Enum.Operation",
          "name": "operation",
          "type": "uint8"
        },
        {
          "internalType": "uint256",
          "name": "safeTxGas",
          "type": "uint256"
        },
        {
          "internalType": "uint256",
          "name": "baseGas",
          "type": "uint256"
        },
        {
          "internalType": "uint256",
          "name": "gasPrice",
          "type": "uint256"
        },
        {
          "internalType": "address",
          "name": "gasToken",
          "type": "address"
        },
        {
          "internalType": "address",
          "name": "refundReceiver",
          "type": "address"
        },
        {
          "internalType": "uint256",
          "name": "_nonce",
          "type": "uint256"
        }
      ],
      "name": "encodeTransactionData",
      "outputs": [
        {
          "internalType": "bytes",
          "name": "",
          "type": "bytes"
        }
      ],
      "stateMutability": "view",
      "type": "function"
    },
    {
      "inputs": [
        {
          "internalType": "address",
          "name": "to",
          "type": "address"
        },
        {
          "internalType": "uint256",
          "name": "value",
          "type": "uint256"
        },
        {
          "internalType": "bytes",
          "name": "data",
          "type": "bytes"
        },
        {
          "internalType": "enum Enum.Operation",
          "name": "operation",
          "type": "uint8"
        },
        {
          "internalType": "uint256",
          "name": "safeTxGas",
          "type": "uint256"
        },
        {
          "internalType": "uint256",
          "name": "baseGas",
          "type": "uint256"
        },
        {
          "internalType": "uint256",
          "name": "gasPrice",
          "type": "uint256"
        },
        {
          "internalType": "address",
          "name": "gasToken",
          "type": "address"
        },
        {
          "internalType": "address payable",
          "name": "refundReceiver",
          "type": "address"
        },
        {
          "internalType": "bytes",
          "name": "signatures",
          "type": "bytes"
        }
      ],
      "name": "execTransaction",
      "outputs": [
        {
          "internalType": "bool",
          "name": "success",
          "type": "bool"
        }
      ],
      "stateMutability": "payable",
      "type": "function"
    },
    {
      "inputs": [
        {
          "internalType": "address",
          "name": "to",
          "type": "address"
        },
        {
          "internalType": "uint256",
          "name": "value",
          "type": "uint256"
        },
        {
          "internalType": "bytes",
          "name": "data",
          "type": "bytes"
        },
        {
          "internalType": "enum Enum.Operation",
          "name": "operation",
          "type": "uint8"
        }
      ],
      "name": "execTransactionFromModule",
      "outputs": [
        {
          "internalType": "bool",
          "name": "success",
          "type": "bool"
        }
      ],
      "stateMutability": "nonpayable",
      "type": "function"
    },
    {
      "inputs": [
        {
          "internalType": "address",
          "name": "to",
          "type": "address"
        },
        {
          "internalType": "uint256",
          "name": "value",
          "type": "uint256"
        },
        {
          "internalType": "bytes",
          "name": "data",
          "type": "bytes"
        },
        {
          "internalType": "enum Enum.Operation",
          "name": "operation",
          "type": "uint8"
        }
      ],
      "name": "execTransactionFromModuleReturnData",
      "outputs": [
        {
          "internalType": "bool",
          "name": "success",
          "type": "bool"
        },
        {
          "internalType": "bytes",
          "name": "returnData",
          "type": "bytes"
        }
      ],
      "stateMutability": "nonpayable",
      "type": "function"
    },
    {
      "inputs": [],
      "name": "getChainId",
      "outputs": [
        {
          "internalType": "uint256",
          "name": "",
          "type": "uint256"
        }
      ],
      "stateMutability": "view",
      "type": "function"
    },
    {
      "inputs": [
        {
          "internalType": "address",
          "name": "start",
          "type": "address"
        },
        {
          "internalType": "uint256",
          "name": "pageSize",
          "type": "uint256"
        }
      ],
      "name": "getModulesPaginated",
      "outputs": [
        {
          "internalType": "address[]",
          "name": "array",
          "type": "address[]"
        },
        {
          "internalType": "address",
          "name": "next",
          "type": "address"
        }
      ],
      "stateMutability": "view",
      "type": "function"
    },
    {
      "inputs": [],
      "name": "getOwners",
      "outputs": [
        {
          "internalType": "address[]",
          "name": "",
          "type": "address[]"
        }
      ],
      "stateMutability": "view",
      "type": "function"
    },
    {
      "inputs": [
        {
          "internalType": "uint256",
          "name": "offset",
          "type": "uint256"
        },
        {
          "internalType": "uint256",
          "name": "length",
          "type": "uint256"
        }
      ],
      "name": "getStorageAt",
      "outputs": [
        {
          "internalType": "bytes",
          "name": "",
          "type": "bytes"
        }
      ],
      "stateMutability": "view",
      "type": "function"
    },
    {
      "inputs": [],
      "name": "getThreshold",
      "outputs": [
        {
          "internalType": "uint256",
          "name": "",
          "type": "uint256"
        }
      ],
      "stateMutability": "view",
      "type": "function"
    },
    {
      "inputs": [
        {
          "internalType": "address",
          "name": "to",
          "type": "address"
        },
        {
          "internalType": "uint256",
          "name": "value",
          "type": "uint256"
        },
        {
          "internalType": "bytes",
          "name": "data",
          "type": "bytes"
        },
        {
          "internalType": "enum Enum.Operation",
          "name": "operation",
          "type": "uint8"
        },
        {
          "internalType": "uint256",
          "name": "safeTxGas",
          "type": "uint256"
        },
        {
          "internalType": "uint256",
          "name": "baseGas",
          "type": "uint256"
        },
        {
          "internalType": "uint256",
          "name": "gasPrice",
          "type": "uint256"
        },
        {
          "internalType": "address",
          "name": "gasToken",
          "type": "address"
        },
        {
          "internalType": "address",
          "name": "refundReceiver",
          "type": "address"
        },
        {
          "internalType": "uint256",
          "name": "_nonce",
          "type": "uint256"
        }
      ],
      "name": "getTransactionHash",
      "outputs": [
        {
          "internalType": "bytes32",
          "name": "",
          "type": "bytes32"
        }
      ],
      "stateMutability": "view",
      "type": "function"
    },
    {
      "inputs": [
        {
          "internalType": "address",
          "name": "module",
          "type": "address"
        }
      ],
      "name": "isModuleEnabled",
      "outputs": [
        {
          "internalType": "bool",
          "name": "",
          "type": "bool"
        }
      ],
      "stateMutability": "view",
      "type": "function"
    },
    {
      "inputs": [
        {
          "internalType": "address",
          "name": "owner",
          "type": "address"
        }
      ],
      "name": "isOwner",
      "outputs": [
        {
          "internalType": "bool",
          "name": "",
          "type": "bool"
        }
      ],
      "stateMutability": "view",
      "type": "function"
    },
    {
      "inputs": [],
      "name": "nonce",
      "outputs": [
        {
          "internalType": "uint256",
          "name": "",
          "type": "uint256"
        }
      ],
      "stateMutability": "view",
      "type": "function"
    },
    {
      "inputs": [
        {
          "internalType": "address",
          "name": "prevOwner",
          "type": "address"
        },
        {
          "internalType": "address",
          "name": "owner",
          "type": "address"
        },
        {
          "internalType": "uint256",
          "name": "_threshold",
          "type": "uint256"
        }
      ],
      "name": "removeOwner",
      "outputs": [],
      "stateMutability": "nonpayable",
      "type": "function"
    },
    {
      "inputs": [
        {
          "internalType": "address",
          "name": "handler",
          "type": "address"
        }
      ],
      "name": "setFallbackHandler",
      "outputs": [],
      "stateMutability": "nonpayable",
      "type": "function"
    },
    {
      "inputs": [
        {
          "internalType": "address",
          "name": "guard",
          "type": "address"
        }
      ],
      "name": "setGuard",
      "outputs": [],
      "stateMutability": "nonpayable",
      "type": "function"
    },
    {
      "inputs": [
        {
          "internalType": "address[]",
          "name": "_owners",
          "type": "address[]"
        },
        {
          "internalType": "uint256",
          "name": "_threshold",
          "type": "uint256"
        },
        {
          "internalType": "address",
          "name": "to",
          "type": "address"
        },
        {
          "internalType": "bytes",
          "name": "data",
          "type": "bytes"
        },
        {
          "internalType": "address",
          "name": "fallbackHandler",
          "type": "address"
        },
        {
          "internalType": "address",
          "name": "paymentToken",
          "type": "address"
        },
        {
          "internalType": "uint256",
          "name": "payment",
          "type": "uint256"
        },
        {
          "internalType": "address payable",
          "name": "paymentReceiver",
          "type": "address"
        }
      ],
      "name": "setup",
      "outputs": [],
      "stateMutability": "nonpayable",
      "type": "function"
    },
    {
      "inputs": [
        {
          "internalType": "bytes32",
          "name": "",
          "type": "bytes32"
        }
      ],
      "name": "signedMessages",
      "outputs": [
        {
          "internalType": "uint256",
          "name": "",
          "type": "uint256"
        }
      ],
      "stateMutability": "view",
      "type": "function"
    },
    {
      "inputs": [
        {
          "internalType": "address",
          "name": "targetContract",
          "type": "address"
        },
        {
          "internalType": "bytes",
          "name": "calldataPayload",
          "type": "bytes"
        }
      ],
      "name": "simulateAndRevert",
      "outputs": [],
      "stateMutability": "nonpayable",
      "type": "function"
    },
    {
      "inputs": [
        {
          "internalType": "address",
          "name": "prevOwner",
          "type": "address"
        },
        {
          "internalType": "address",
          "name": "oldOwner",
          "type": "address"
        },
        {
          "internalType": "address",
          "name": "newOwner",
          "type": "address"
        }
      ],
      "name": "swapOwner",
      "outputs": [],
      "stateMutability": "nonpayable",
      "type": "function"
    },
    {
      "stateMutability": "payable",
      "type": "receive"
    }
  ],
  "bytecode": "0x608060405234801561001057600080fd5b50600160048190555061653280620000296000396000f3fe6080604052600436106101d15760003560e01c8063affed0e0116100f7578063e19a9dd911610095578063f08a032311610064578063f08a032314610796578063f698da25146107bf578063f8dc5dd9146107ea578063ffa1ad741461081357610226565b8063e19a9dd9146106dc578063e318b52b14610705578063e75235b81461072e578063e86637db1461075957610226565b8063cc2f8452116100d1578063cc2f84521461060f578063d4d9bdcd1461064d578063d8d11f7814610676578063e009cfde146106b357610226565b8063affed0e014610592578063b4faba09146105bd578063b63e800d146105e657610226565b80635624b25b1161016f5780636a7612021161013e5780636a761202146104d15780637d83297414610501578063934f3a111461053e578063a0e67e2b1461056757610226565b80635624b25b146104055780635ae6bd3714610442578063610b59251461047f578063694e80c3146104a857610226565b80632f54bf6e116101ab5780632f54bf6e146103225780633408e4701461035f578063468721a71461038a5780635229073f146103c757610226565b80630d582f131461029357806312fb68e0146102bc5780632d9ad53d146102e557610226565b36610226573373ffffffffffffffffffffffffffffffffffffffff167f3d0ce9bfc3ed7d6862dbb28b2dea94561fe714a1b4d019aa8af39730d1ad7c3d3460405161021c91906140d0565b60405180910390a2005b34801561023257600080fd5b5060007f6c9a6c4a39284e37ed1cf53d337577d14212a4870fb976a4366c693b939918d560001b905080548061026757600080f35b36600080373360601b365260008060143601600080855af13d6000803e8061028e573d6000fd5b3d6000f35b34801561029f57600080fd5b506102ba60048036038101906102b59190614189565b61083e565b005b3480156102c857600080fd5b506102e360048036038101906102de9190614345565b610bb8565b005b3480156102f157600080fd5b5061030c600480360381019061030791906143e4565b6111f7565b604051610319919061442c565b60405180910390f35b34801561032e57600080fd5b50610349600480360381019061034491906143e4565b6112c9565b604051610356919061442c565b60405180910390f35b34801561036b57600080fd5b5061037461139b565b60405161038191906140d0565b60405180910390f35b34801561039657600080fd5b506103b160048036038101906103ac919061446c565b6113a8565b6040516103be919061442c565b60405180910390f35b3480156103d357600080fd5b506103ee60048036038101906103e9919061446c565b61157b565b6040516103fc92919061456e565b60405180910390f35b34801561041157600080fd5b5061042c6004803603810190610427919061459e565b6115b1565b60405161043991906145de565b60405180910390f35b34801561044e57600080fd5b5061046960048036038101906104649190614600565b611649565b60405161047691906140d0565b60405180910390f35b34801561048b57600080fd5b506104a660048036038101906104a191906143e4565b611661565b005b3480156104b457600080fd5b506104cf60048036038101906104ca919061462d565b611977565b005b6104eb60048036038101906104e691906146f8565b611a4b565b6040516104f8919061442c565b60405180910390f35b34801561050d57600080fd5b5061052860048036038101906105239190614814565b611e0c565b60405161053591906140d0565b60405180910390f35b34801561054a57600080fd5b5061056560048036038101906105609190614854565b611e31565b005b34801561057357600080fd5b5061057c611e8d565b604051610589919061499d565b60405180910390f35b34801561059e57600080fd5b506105a7612045565b6040516105b491906140d0565b60405180910390f35b3480156105c957600080fd5b506105e460048036038101906105df91906149bf565b61204b565b005b3480156105f257600080fd5b5061060d60048036038101906106089190614a71565b61206d565b005b34801561061b57600080fd5b5061063660048036038101906106319190614189565b6121c0565b604051610644929190614b77565b60405180910390f35b34801561065957600080fd5b50610674600480360381019061066f9190614600565b6124dc565b005b34801561068257600080fd5b5061069d60048036038101906106989190614ba7565b612647565b6040516106aa9190614cb6565b60405180910390f35b3480156106bf57600080fd5b506106da60048036038101906106d59190614cd1565b612674565b005b3480156106e857600080fd5b5061070360048036038101906106fe91906143e4565b612989565b005b34801561071157600080fd5b5061072c60048036038101906107279190614d11565b612b05565b005b34801561073a57600080fd5b5061074361307f565b60405161075091906140d0565b60405180910390f35b34801561076557600080fd5b50610780600480360381019061077b9190614ba7565b613089565b60405161078d91906145de565b60405180910390f35b3480156107a257600080fd5b506107bd60048036038101906107b891906143e4565b61314b565b005b3480156107cb57600080fd5b506107d4613196565b6040516107e19190614cb6565b60405180910390f35b3480156107f657600080fd5b50610811600480360381019061080c9190614d64565b6131f2565b005b34801561081f57600080fd5b50610828613584565b6040516108359190614e0c565b60405180910390f35b6108466135bd565b600073ffffffffffffffffffffffffffffffffffffffff168273ffffffffffffffffffffffffffffffffffffffff16141580156108b05750600173ffffffffffffffffffffffffffffffffffffffff168273ffffffffffffffffffffffffffffffffffffffff1614155b80156108e857503073ffffffffffffffffffffffffffffffffffffffff168273ffffffffffffffffffffffffffffffffffffffff1614155b610927576040517f08c379a000000000000000000000000000000000000000000000000000000000815260040161091e90614e7a565b60405180910390fd5b600073ffffffffffffffffffffffffffffffffffffffff16600260008473ffffffffffffffffffffffffffffffffffffffff1673ffffffffffffffffffffffffffffffffffffffff16815260200190815260200160002060009054906101000a900473ffffffffffffffffffffffffffffffffffffffff1673ffffffffffffffffffffffffffffffffffffffff16146109f5576040517f08c379a00000000000000000000000000000000000000000000000000000000081526004016109ec90614ee6565b60405180910390fd5b60026000600173ffffffffffffffffffffffffffffffffffffffff1673ffffffffffffffffffffffffffffffffffffffff16815260200190815260200160002060009054906101000a900473ffffffffffffffffffffffffffffffffffffffff16600260008473ffffffffffffffffffffffffffffffffffffffff1673ffffffffffffffffffffffffffffffffffffffff16815260200190815260200160002060006101000a81548173ffffffffffffffffffffffffffffffffffffffff021916908373ffffffffffffffffffffffffffffffffffffffff1602179055508160026000600173ffffffffffffffffffffffffffffffffffffffff1673ffffffffffffffffffffffffffffffffffffffff16815260200190815260200160002060006101000a81548173ffffffffffffffffffffffffffffffffffffffff021916908373ffffffffffffffffffffffffffffffffffffffff16021790555060036000815480929190610b6590614f35565b91905055507f9465fa0c962cc76958e6373a993326400c1c94f8be2fe3a952adfa7f60b2ea2682604051610b999190614f7d565b60405180910390a18060045414610bb457610bb381611977565b5b5050565b610bcc60418261362d90919063ffffffff16565b82511015610c0f576040517f08c379a0000000000000000000000000000000000000000000000000000000008152600401610c0690614fe4565b60405180910390fd5b6000808060008060005b868110156111eb57610c2b8882613671565b80945081955082965050505060008460ff1603610ece5789898051906020012014610c8b576040517f08c379a0000000000000000000000000000000000000000000000000000000008152600401610c8290615050565b60405180910390fd5b8260001c9450610ca560418861362d90919063ffffffff16565b8260001c1015610cea576040517f08c379a0000000000000000000000000000000000000000000000000000000008152600401610ce1906150bc565b60405180910390fd5b8751610d0360208460001c6136a090919063ffffffff16565b1115610d44576040517f08c379a0000000000000000000000000000000000000000000000000000000008152600401610d3b90615128565b60405180910390fd5b60006020838a01015190508851610d7a82610d6c60208760001c6136a090919063ffffffff16565b6136a090919063ffffffff16565b1115610dbb576040517f08c379a0000000000000000000000000000000000000000000000000000000008152600401610db290615194565b60405180910390fd5b60606020848b010190506320c13b0b60e01b7bffffffffffffffffffffffffffffffffffffffffffffffffffffffff19168773ffffffffffffffffffffffffffffffffffffffff166320c13b0b8d846040518363ffffffff1660e01b8152600401610e279291906151b4565b602060405180830381865afa158015610e44573d6000803e3d6000fd5b505050506040513d601f19601f82011682018060405250810190610e689190615243565b7bffffffffffffffffffffffffffffffffffffffffffffffffffffffff191614610ec7576040517f08c379a0000000000000000000000000000000000000000000000000000000008152600401610ebe906152bc565b60405180910390fd5b5050611096565b60018460ff1603610fae578260001c94508473ffffffffffffffffffffffffffffffffffffffff163373ffffffffffffffffffffffffffffffffffffffff161480610f6a57506000600860008773ffffffffffffffffffffffffffffffffffffffff1673ffffffffffffffffffffffffffffffffffffffff16815260200190815260200160002060008c81526020019081526020016000205414155b610fa9576040517f08c379a0000000000000000000000000000000000000000000000000000000008152600401610fa090615328565b60405180910390fd5b611095565b601e8460ff1611156110425760018a604051602001610fcd91906153c0565b60405160208183030381529060405280519060200120600486610ff091906153f3565b85856040516000815260200160405260405161100f9493929190615437565b6020604051602081039080840390855afa158015611031573d6000803e3d6000fd5b505050602060405103519450611094565b60018a858585604051600081526020016040526040516110659493929190615437565b6020604051602081039080840390855afa158015611087573d6000803e3d6000fd5b5050506020604051035194505b5b5b8573ffffffffffffffffffffffffffffffffffffffff168573ffffffffffffffffffffffffffffffffffffffff1611801561115d5750600073ffffffffffffffffffffffffffffffffffffffff16600260008773ffffffffffffffffffffffffffffffffffffffff1673ffffffffffffffffffffffffffffffffffffffff16815260200190815260200160002060009054906101000a900473ffffffffffffffffffffffffffffffffffffffff1673ffffffffffffffffffffffffffffffffffffffff1614155b80156111965750600173ffffffffffffffffffffffffffffffffffffffff168573ffffffffffffffffffffffffffffffffffffffff1614155b6111d5576040517f08c379a00000000000000000000000000000000000000000000000000000000081526004016111cc906154c8565b60405180910390fd5b84955080806111e390614f35565b915050610c19565b50505050505050505050565b60008173ffffffffffffffffffffffffffffffffffffffff16600173ffffffffffffffffffffffffffffffffffffffff16141580156112c25750600073ffffffffffffffffffffffffffffffffffffffff16600160008473ffffffffffffffffffffffffffffffffffffffff1673ffffffffffffffffffffffffffffffffffffffff16815260200190815260200160002060009054906101000a900473ffffffffffffffffffffffffffffffffffffffff1673ffffffffffffffffffffffffffffffffffffffff1614155b9050919050565b6000600173ffffffffffffffffffffffffffffffffffffffff168273ffffffffffffffffffffffffffffffffffffffff16141580156113945750600073ffffffffffffffffffffffffffffffffffffffff16600260008473ffffffffffffffffffffffffffffffffffffffff1673ffffffffffffffffffffffffffffffffffffffff16815260200190815260200160002060009054906101000a900473ffffffffffffffffffffffffffffffffffffffff1673ffffffffffffffffffffffffffffffffffffffff1614155b9050919050565b6000804690508091505090565b6000600173ffffffffffffffffffffffffffffffffffffffff163373ffffffffffffffffffffffffffffffffffffffff16141580156114735750600073ffffffffffffffffffffffffffffffffffffffff16600160003373ffffffffffffffffffffffffffffffffffffffff1673ffffffffffffffffffffffffffffffffffffffff16815260200190815260200160002060009054906101000a900473ffffffffffffffffffffffffffffffffffffffff1673ffffffffffffffffffffffffffffffffffffffff1614155b6114b2576040517f08c379a00000000000000000000000000000000000000000000000000000000081526004016114a990615534565b60405180910390fd5b6114df858585857fffffffffffffffffffffffffffffffffffffffffffffffffffffffffffffffff6136c8565b9050801561152f573373ffffffffffffffffffffffffffffffffffffffff167f6895c13664aa4f67288b25d7a21d7aaa34916e355fb9b6fae0a139a9085becb860405160405180910390a2611573565b3373ffffffffffffffffffffffffffffffffffffffff167facd2c8702804128fdb0db2bb49f6d127dd0181c13fd45dbfe16de0930e2bd37560405160405180910390a25b949350505050565b6000606061158b868686866113a8565b915060405160203d0181016040523d81523d6000602083013e8091505094509492505050565b606060006020836115c29190615554565b67ffffffffffffffff8111156115db576115da61421a565b5b6040519080825280601f01601f19166020018201604052801561160d5781602001600182028036833780820191505090505b50905060005b8381101561163e5780850154806020830260208501015250808061163690614f35565b915050611613565b508091505092915050565b60076020528060005260406000206000915090505481565b6116696135bd565b600073ffffffffffffffffffffffffffffffffffffffff168173ffffffffffffffffffffffffffffffffffffffff16141580156116d35750600173ffffffffffffffffffffffffffffffffffffffff168173ffffffffffffffffffffffffffffffffffffffff1614155b611712576040517f08c379a0000000000000000000000000000000000000000000000000000000008152600401611709906155e2565b60405180910390fd5b600073ffffffffffffffffffffffffffffffffffffffff16600160008373ffffffffffffffffffffffffffffffffffffffff1673ffffffffffffffffffffffffffffffffffffffff16815260200190815260200160002060009054906101000a900473ffffffffffffffffffffffffffffffffffffffff1673ffffffffffffffffffffffffffffffffffffffff16146117e0576040517f08c379a00000000000000000000000000000000000000000000000000000000081526004016117d79061564e565b60405180910390fd5b60016000600173ffffffffffffffffffffffffffffffffffffffff1673ffffffffffffffffffffffffffffffffffffffff16815260200190815260200160002060009054906101000a900473ffffffffffffffffffffffffffffffffffffffff16600160008373ffffffffffffffffffffffffffffffffffffffff1673ffffffffffffffffffffffffffffffffffffffff16815260200190815260200160002060006101000a81548173ffffffffffffffffffffffffffffffffffffffff021916908373ffffffffffffffffffffffffffffffffffffffff1602179055508060016000600173ffffffffffffffffffffffffffffffffffffffff1673ffffffffffffffffffffffffffffffffffffffff16815260200190815260200160002060006101000a81548173ffffffffffffffffffffffffffffffffffffffff021916908373ffffffffffffffffffffffffffffffffffffffff1602179055507fecdf3a3effea5783a3c4c2140e677577666428d44ed9d474a0b3a4c9943f84408160405161196c9190614f7d565b60405180910390a150565b61197f6135bd565b6003548111156119c4576040517f08c379a00000000000000000000000000000000000000000000000000000000081526004016119bb906156ba565b60405180910390fd5b6001811015611a08576040517f08c379a00000000000000000000000000000000000000000000000000000000081526004016119ff90615726565b60405180910390fd5b806004819055507f610f7ff2b304ae8903c3de74c60c6ab1f7d6226b3f52c5161905bb5ad4039c93600454604051611a4091906140d0565b60405180910390a150565b6000806000611a658e8e8e8e8e8e8e8e8e8e600554613089565b905060056000815480929190611a7a90614f35565b919050555080805190602001209150611a94828286611e31565b506000611a9f613721565b9050600073ffffffffffffffffffffffffffffffffffffffff168173ffffffffffffffffffffffffffffffffffffffff1614611b57578073ffffffffffffffffffffffffffffffffffffffff166375f0bb528f8f8f8f8f8f8f8f8f8f8f336040518d63ffffffff1660e01b8152600401611b249c9b9a999897969594939291906157f9565b600060405180830381600087803b158015611b3e57600080fd5b505af1158015611b52573d6000803e3d6000fd5b505050505b6101f4611b926109c48b611b6b91906158b4565b603f60408d611b7a9190615554565b611b849190615917565b61375290919063ffffffff16565b611b9c91906158b4565b5a1015611bde576040517f08c379a0000000000000000000000000000000000000000000000000000000008152600401611bd590615994565b60405180910390fd5b60005a9050611c508f8f8f8f8080601f016020809104026020016040519081016040528093929190818152602001838380828437600081840152601f19601f820116905080830192505050505050508e60008d14611c3c578e611c4b565b6109c45a611c4a91906159b4565b5b6136c8565b9350611c655a8261376c90919063ffffffff16565b90508380611c74575060008a14155b80611c80575060008814155b611cbf576040517f08c379a0000000000000000000000000000000000000000000000000000000008152600401611cb690615a34565b60405180910390fd5b600080891115611cd957611cd6828b8b8b8b613795565b90505b8415611d1d577f442e715f626346e8c54381002da614f62bee8d27386535b2521ec8540898556e8482604051611d10929190615a54565b60405180910390a1611d57565b7f23428b18acfb3ea64b08dc0c1d296ea9c09702c09083ca5272e64d115b687d238482604051611d4e929190615a54565b60405180910390a15b5050600073ffffffffffffffffffffffffffffffffffffffff168173ffffffffffffffffffffffffffffffffffffffff1614611dfb578073ffffffffffffffffffffffffffffffffffffffff16639327136883856040518363ffffffff1660e01b8152600401611dc8929190615a7d565b600060405180830381600087803b158015611de257600080fd5b505af1158015611df6573d6000803e3d6000fd5b505050505b50509b9a5050505050505050505050565b6008602052816000526040600020602052806000526040600020600091509150505481565b6000600454905060008111611e7b576040517f08c379a0000000000000000000000000000000000000000000000000000000008152600401611e7290615af2565b60405180910390fd5b611e8784848484610bb8565b50505050565b6060600060035467ffffffffffffffff811115611ead57611eac61421a565b5b604051908082528060200260200182016040528015611edb5781602001602082028036833780820191505090505b50905060008060026000600173ffffffffffffffffffffffffffffffffffffffff1673ffffffffffffffffffffffffffffffffffffffff16815260200190815260200160002060009054906101000a900473ffffffffffffffffffffffffffffffffffffffff1690505b600173ffffffffffffffffffffffffffffffffffffffff168173ffffffffffffffffffffffffffffffffffffffff161461203c5780838381518110611f8d57611f8c615b12565b5b602002602001019073ffffffffffffffffffffffffffffffffffffffff16908173ffffffffffffffffffffffffffffffffffffffff1681525050600260008273ffffffffffffffffffffffffffffffffffffffff1673ffffffffffffffffffffffffffffffffffffffff16815260200190815260200160002060009054906101000a900473ffffffffffffffffffffffffffffffffffffffff169050818061203490614f35565b925050611f45565b82935050505090565b60055481565b600080825160208401855af4806000523d6020523d600060403e60403d016000fd5b6120b88a8a80806020026020016040519081016040528093929190818152602001838360200280828437600081840152601f19601f8201169050808301925050505050505089613934565b600073ffffffffffffffffffffffffffffffffffffffff168473ffffffffffffffffffffffffffffffffffffffff16146120f6576120f584613d42565b5b6121448787878080601f016020809104026020016040519081016040528093929190818152602001838380828437600081840152601f19601f82011690508083019250505050505050613ddf565b600082111561215e5761215c82600060018685613795565b505b3373ffffffffffffffffffffffffffffffffffffffff167f141df868a6331af528e38c83b7aa03edc19be66e37ae67f9285bf4f8e3c6a1a88b8b8b8b896040516121ac959493929190615bcc565b60405180910390a250505050505050505050565b60606000600173ffffffffffffffffffffffffffffffffffffffff168473ffffffffffffffffffffffffffffffffffffffff1614806122045750612203846111f7565b5b612243576040517f08c379a000000000000000000000000000000000000000000000000000000000815260040161223a90615c66565b60405180910390fd5b60008311612286576040517f08c379a000000000000000000000000000000000000000000000000000000000815260040161227d90615cd2565b60405180910390fd5b8267ffffffffffffffff8111156122a05761229f61421a565b5b6040519080825280602002602001820160405280156122ce5781602001602082028036833780820191505090505b5091506000600160008673ffffffffffffffffffffffffffffffffffffffff1673ffffffffffffffffffffffffffffffffffffffff16815260200190815260200160002060009054906101000a900473ffffffffffffffffffffffffffffffffffffffff1691505b600073ffffffffffffffffffffffffffffffffffffffff168273ffffffffffffffffffffffffffffffffffffffff16141580156123a05750600173ffffffffffffffffffffffffffffffffffffffff168273ffffffffffffffffffffffffffffffffffffffff1614155b80156123ab57508381105b1561247357818382815181106123c4576123c3615b12565b5b602002602001019073ffffffffffffffffffffffffffffffffffffffff16908173ffffffffffffffffffffffffffffffffffffffff1681525050600160008373ffffffffffffffffffffffffffffffffffffffff1673ffffffffffffffffffffffffffffffffffffffff16815260200190815260200160002060009054906101000a900473ffffffffffffffffffffffffffffffffffffffff169150808061246b90614f35565b915050612336565b600173ffffffffffffffffffffffffffffffffffffffff168273ffffffffffffffffffffffffffffffffffffffff16146124d157826001826124b591906159b4565b815181106124c6576124c5615b12565b5b602002602001015191505b808352509250929050565b600073ffffffffffffffffffffffffffffffffffffffff16600260003373ffffffffffffffffffffffffffffffffffffffff1673ffffffffffffffffffffffffffffffffffffffff16815260200190815260200160002060009054906101000a900473ffffffffffffffffffffffffffffffffffffffff1673ffffffffffffffffffffffffffffffffffffffff16036125aa576040517f08c379a00000000000000000000000000000000000000000000000000000000081526004016125a190615d3e565b60405180910390fd5b6001600860003373ffffffffffffffffffffffffffffffffffffffff1673ffffffffffffffffffffffffffffffffffffffff1681526020019081526020016000206000838152602001908152602001600020819055503373ffffffffffffffffffffffffffffffffffffffff16817ff2a0eb156472d1440255b0d7c1e19cc07115d1051fe605b0dce69acfec884d9c60405160405180910390a350565b600061265c8c8c8c8c8c8c8c8c8c8c8c613089565b8051906020012090509b9a5050505050505050505050565b61267c6135bd565b600073ffffffffffffffffffffffffffffffffffffffff168173ffffffffffffffffffffffffffffffffffffffff16141580156126e65750600173ffffffffffffffffffffffffffffffffffffffff168173ffffffffffffffffffffffffffffffffffffffff1614155b612725576040517f08c379a000000000000000000000000000000000000000000000000000000000815260040161271c906155e2565b60405180910390fd5b8073ffffffffffffffffffffffffffffffffffffffff16600160008473ffffffffffffffffffffffffffffffffffffffff1673ffffffffffffffffffffffffffffffffffffffff16815260200190815260200160002060009054906101000a900473ffffffffffffffffffffffffffffffffffffffff1673ffffffffffffffffffffffffffffffffffffffff16146127f2576040517f08c379a00000000000000000000000000000000000000000000000000000000081526004016127e990615daa565b60405180910390fd5b600160008273ffffffffffffffffffffffffffffffffffffffff1673ffffffffffffffffffffffffffffffffffffffff16815260200190815260200160002060009054906101000a900473ffffffffffffffffffffffffffffffffffffffff16600160008473ffffffffffffffffffffffffffffffffffffffff1673ffffffffffffffffffffffffffffffffffffffff16815260200190815260200160002060006101000a81548173ffffffffffffffffffffffffffffffffffffffff021916908373ffffffffffffffffffffffffffffffffffffffff1602179055506000600160008373ffffffffffffffffffffffffffffffffffffffff1673ffffffffffffffffffffffffffffffffffffffff16815260200190815260200160002060006101000a81548173ffffffffffffffffffffffffffffffffffffffff021916908373ffffffffffffffffffffffffffffffffffffffff1602179055507faab4fa2b463f581b2b32cb3b7e3b704b9ce37cc209b5fb4d77e593ace40542768160405161297d9190614f7d565b60405180910390a15050565b6129916135bd565b600073ffffffffffffffffffffffffffffffffffffffff168173ffffffffffffffffffffffffffffffffffffffff1614612a9f578073ffffffffffffffffffffffffffffffffffffffff166301ffc9a77fe6d7a83a000000000000000000000000000000000000000000000000000000006040518263ffffffff1660e01b8152600401612a1e9190615dd9565b602060405180830381865afa158015612a3b573d6000803e3d6000fd5b505050506040513d601f19601f82011682018060405250810190612a5f9190615e20565b612a9e576040517f08c379a0000000000000000000000000000000000000000000000000000000008152600401612a9590615e99565b60405180910390fd5b5b60007f4a204f620c8c5ccdca3fd54d003badd85ba500436a431f0cbda4f558c93c34c860001b90508181557f1151116914515bc0891ff9047a6cb32cf902546f83066499bcf8ba33d2353fa282604051612af99190614f7d565b60405180910390a15050565b612b0d6135bd565b600073ffffffffffffffffffffffffffffffffffffffff168173ffffffffffffffffffffffffffffffffffffffff1614158015612b775750600173ffffffffffffffffffffffffffffffffffffffff168173ffffffffffffffffffffffffffffffffffffffff1614155b8015612baf57503073ffffffffffffffffffffffffffffffffffffffff168173ffffffffffffffffffffffffffffffffffffffff1614155b612bee576040517f08c379a0000000000000000000000000000000000000000000000000000000008152600401612be590614e7a565b60405180910390fd5b600073ffffffffffffffffffffffffffffffffffffffff16600260008373ffffffffffffffffffffffffffffffffffffffff1673ffffffffffffffffffffffffffffffffffffffff16815260200190815260200160002060009054906101000a900473ffffffffffffffffffffffffffffffffffffffff1673ffffffffffffffffffffffffffffffffffffffff1614612cbc576040517f08c379a0000000000000000000000000000000000000000000000000000000008152600401612cb390614ee6565b60405180910390fd5b600073ffffffffffffffffffffffffffffffffffffffff168273ffffffffffffffffffffffffffffffffffffffff1614158015612d265750600173ffffffffffffffffffffffffffffffffffffffff168273ffffffffffffffffffffffffffffffffffffffff1614155b612d65576040517f08c379a0000000000000000000000000000000000000000000000000000000008152600401612d5c90614e7a565b60405180910390fd5b8173ffffffffffffffffffffffffffffffffffffffff16600260008573ffffffffffffffffffffffffffffffffffffffff1673ffffffffffffffffffffffffffffffffffffffff16815260200190815260200160002060009054906101000a900473ffffffffffffffffffffffffffffffffffffffff1673ffffffffffffffffffffffffffffffffffffffff1614612e32576040517f08c379a0000000000000000000000000000000000000000000000000000000008152600401612e2990615f05565b60405180910390fd5b600260008373ffffffffffffffffffffffffffffffffffffffff1673ffffffffffffffffffffffffffffffffffffffff16815260200190815260200160002060009054906101000a900473ffffffffffffffffffffffffffffffffffffffff16600260008373ffffffffffffffffffffffffffffffffffffffff1673ffffffffffffffffffffffffffffffffffffffff16815260200190815260200160002060006101000a81548173ffffffffffffffffffffffffffffffffffffffff021916908373ffffffffffffffffffffffffffffffffffffffff16021790555080600260008573ffffffffffffffffffffffffffffffffffffffff1673ffffffffffffffffffffffffffffffffffffffff16815260200190815260200160002060006101000a81548173ffffffffffffffffffffffffffffffffffffffff021916908373ffffffffffffffffffffffffffffffffffffffff1602179055506000600260008473ffffffffffffffffffffffffffffffffffffffff1673ffffffffffffffffffffffffffffffffffffffff16815260200190815260200160002060006101000a81548173ffffffffffffffffffffffffffffffffffffffff021916908373ffffffffffffffffffffffffffffffffffffffff1602179055507ff8d49fc529812e9a7c5c50e69c20f0dccc0db8fa95c98bc58cc9a4f1c1299eaf8260405161303b9190614f7d565b60405180910390a17f9465fa0c962cc76958e6373a993326400c1c94f8be2fe3a952adfa7f60b2ea26816040516130729190614f7d565b60405180910390a1505050565b6000600454905090565b606060007fbb8310d486368db6bd6f849402fdd73ad53d316b5a4b2644ad6efe0f941286d860001b8d8d8d8d6040516130c3929190615f55565b60405180910390208c8c8c8c8c8c8c6040516020016130ec9b9a99989796959493929190615f6e565b604051602081830303815290604052805190602001209050601960f81b600160f81b613116613196565b8360405160200161312a9493929190616066565b6040516020818303038152906040529150509b9a5050505050505050505050565b6131536135bd565b61315c81613d42565b7f5ac6c46c93c8d0e53714ba3b53db3e7c046da994313d7ed0d192028bc7c228b08160405161318b9190614f7d565b60405180910390a150565b60007f47e79534a245952e8b16893a336b85a3d9ea9fa8c573f3d803afb92a7946921860001b6131c461139b565b306040516020016131d793929190616113565b60405160208183030381529060405280519060200120905090565b6131fa6135bd565b80600160035461320a91906159b4565b101561324b576040517f08c379a0000000000000000000000000000000000000000000000000000000008152600401613242906156ba565b60405180910390fd5b600073ffffffffffffffffffffffffffffffffffffffff168273ffffffffffffffffffffffffffffffffffffffff16141580156132b55750600173ffffffffffffffffffffffffffffffffffffffff168273ffffffffffffffffffffffffffffffffffffffff1614155b6132f4576040517f08c379a00000000000000000000000000000000000000000000000000000000081526004016132eb90614e7a565b60405180910390fd5b8173ffffffffffffffffffffffffffffffffffffffff16600260008573ffffffffffffffffffffffffffffffffffffffff1673ffffffffffffffffffffffffffffffffffffffff16815260200190815260200160002060009054906101000a900473ffffffffffffffffffffffffffffffffffffffff1673ffffffffffffffffffffffffffffffffffffffff16146133c1576040517f08c379a00000000000000000000000000000000000000000000000000000000081526004016133b890615f05565b60405180910390fd5b600260008373ffffffffffffffffffffffffffffffffffffffff1673ffffffffffffffffffffffffffffffffffffffff16815260200190815260200160002060009054906101000a900473ffffffffffffffffffffffffffffffffffffffff16600260008573ffffffffffffffffffffffffffffffffffffffff1673ffffffffffffffffffffffffffffffffffffffff16815260200190815260200160002060006101000a81548173ffffffffffffffffffffffffffffffffffffffff021916908373ffffffffffffffffffffffffffffffffffffffff1602179055506000600260008473ffffffffffffffffffffffffffffffffffffffff1673ffffffffffffffffffffffffffffffffffffffff16815260200190815260200160002060006101000a81548173ffffffffffffffffffffffffffffffffffffffff021916908373ffffffffffffffffffffffffffffffffffffffff160217905550600360008154809291906135309061614a565b91905055507ff8d49fc529812e9a7c5c50e69c20f0dccc0db8fa95c98bc58cc9a4f1c1299eaf826040516135649190614f7d565b60405180910390a1806004541461357f5761357e81611977565b5b505050565b6040518060400160405280600581526020017f312e342e3000000000000000000000000000000000000000000000000000000081525081565b3073ffffffffffffffffffffffffffffffffffffffff163373ffffffffffffffffffffffffffffffffffffffff161461362b576040517f08c379a0000000000000000000000000000000000000000000000000000000008152600401613622906161bf565b60405180910390fd5b565b600080830361363f576000905061366b565b6000828461364d9190615554565b905082848261365c9190615917565b1461366657600080fd5b809150505b92915050565b60008060008360410260208101860151925060408101860151915060ff60418201870151169350509250925092565b60008082846136af91906158b4565b9050838110156136be57600080fd5b8091505092915050565b60006001808111156136dd576136dc615773565b5b8360018111156136f0576136ef615773565b5b03613708576000808551602087018986f49050613718565b600080855160208701888a87f190505b95945050505050565b6000807f4a204f620c8c5ccdca3fd54d003badd85ba500436a431f0cbda4f558c93c34c860001b9050805491505090565b6000818310156137625781613764565b825b905092915050565b60008282111561377b57600080fd5b6000828461378991906159b4565b90508091505092915050565b600080600073ffffffffffffffffffffffffffffffffffffffff168373ffffffffffffffffffffffffffffffffffffffff16146137d257826137d4565b325b9050600073ffffffffffffffffffffffffffffffffffffffff168473ffffffffffffffffffffffffffffffffffffffff16036138b85761383d3a861061381a573a61381c565b855b61382f888a6136a090919063ffffffff16565b61362d90919063ffffffff16565b91508073ffffffffffffffffffffffffffffffffffffffff166108fc839081150290604051600060405180830381858888f193505050506138b3576040517f08c379a00000000000000000000000000000000000000000000000000000000081526004016138aa9061622b565b60405180910390fd5b61392a565b6138dd856138cf888a6136a090919063ffffffff16565b61362d90919063ffffffff16565b91506138ea848284613ffc565b613929576040517f08c379a000000000000000000000000000000000000000000000000000000000815260040161392090616297565b60405180910390fd5b5b5095945050505050565b600060045414613979576040517f08c379a000000000000000000000000000000000000000000000000000000000815260040161397090616303565b60405180910390fd5b81518111156139bd576040517f08c379a00000000000000000000000000000000000000000000000000000000081526004016139b4906156ba565b60405180910390fd5b6001811015613a01576040517f08c379a00000000000000000000000000000000000000000000000000000000081526004016139f890615726565b60405180910390fd5b60006001905060005b8351811015613cae576000848281518110613a2857613a27615b12565b5b60200260200101519050600073ffffffffffffffffffffffffffffffffffffffff168173ffffffffffffffffffffffffffffffffffffffff1614158015613a9c5750600173ffffffffffffffffffffffffffffffffffffffff168173ffffffffffffffffffffffffffffffffffffffff1614155b8015613ad457503073ffffffffffffffffffffffffffffffffffffffff168173ffffffffffffffffffffffffffffffffffffffff1614155b8015613b0c57508073ffffffffffffffffffffffffffffffffffffffff168373ffffffffffffffffffffffffffffffffffffffff1614155b613b4b576040517f08c379a0000000000000000000000000000000000000000000000000000000008152600401613b4290614e7a565b60405180910390fd5b600073ffffffffffffffffffffffffffffffffffffffff16600260008373ffffffffffffffffffffffffffffffffffffffff1673ffffffffffffffffffffffffffffffffffffffff16815260200190815260200160002060009054906101000a900473ffffffffffffffffffffffffffffffffffffffff1673ffffffffffffffffffffffffffffffffffffffff1614613c19576040517f08c379a0000000000000000000000000000000000000000000000000000000008152600401613c1090614ee6565b60405180910390fd5b80600260008573ffffffffffffffffffffffffffffffffffffffff1673ffffffffffffffffffffffffffffffffffffffff16815260200190815260200160002060006101000a81548173ffffffffffffffffffffffffffffffffffffffff021916908373ffffffffffffffffffffffffffffffffffffffff160217905550809250508080613ca690614f35565b915050613a0a565b506001600260008373ffffffffffffffffffffffffffffffffffffffff1673ffffffffffffffffffffffffffffffffffffffff16815260200190815260200160002060006101000a81548173ffffffffffffffffffffffffffffffffffffffff021916908373ffffffffffffffffffffffffffffffffffffffff160217905550825160038190555081600481905550505050565b3073ffffffffffffffffffffffffffffffffffffffff168173ffffffffffffffffffffffffffffffffffffffff1603613db0576040517f08c379a0000000000000000000000000000000000000000000000000000000008152600401613da79061636f565b60405180910390fd5b60007f6c9a6c4a39284e37ed1cf53d337577d14212a4870fb976a4366c693b939918d560001b90508181555050565b600073ffffffffffffffffffffffffffffffffffffffff1660016000600173ffffffffffffffffffffffffffffffffffffffff1673ffffffffffffffffffffffffffffffffffffffff16815260200190815260200160002060009054906101000a900473ffffffffffffffffffffffffffffffffffffffff1673ffffffffffffffffffffffffffffffffffffffff1614613eae576040517f08c379a0000000000000000000000000000000000000000000000000000000008152600401613ea5906163db565b60405180910390fd5b6001806000600173ffffffffffffffffffffffffffffffffffffffff1673ffffffffffffffffffffffffffffffffffffffff16815260200190815260200160002060006101000a81548173ffffffffffffffffffffffffffffffffffffffff021916908373ffffffffffffffffffffffffffffffffffffffff160217905550600073ffffffffffffffffffffffffffffffffffffffff168273ffffffffffffffffffffffffffffffffffffffff1614613ff857613f6a826140a4565b613fa9576040517f08c379a0000000000000000000000000000000000000000000000000000000008152600401613fa090616447565b60405180910390fd5b613fb88260008360015a6136c8565b613ff7576040517f08c379a0000000000000000000000000000000000000000000000000000000008152600401613fee906164b3565b60405180910390fd5b5b5050565b60008063a9059cbb84846040516024016140179291906164d3565b6040516020818303038152906040529060e01b6020820180517bffffffffffffffffffffffffffffffffffffffffffffffffffffffff83818316178352505050509050602060008251602084016000896127105a03f13d60008114614087576020811461408f576000935061409a565b81935061409a565b600051158215171593505b5050509392505050565b600080823b905060008111915050919050565b6000819050919050565b6140ca816140b7565b82525050565b60006020820190506140e560008301846140c1565b92915050565b6000604051905090565b600080fd5b600080fd5b600073ffffffffffffffffffffffffffffffffffffffff82169050919050565b600061412a826140ff565b9050919050565b61413a8161411f565b811461414557600080fd5b50565b60008135905061415781614131565b92915050565b614166816140b7565b811461417157600080fd5b50565b6000813590506141838161415d565b92915050565b600080604083850312156141a05761419f6140f5565b5b60006141ae85828601614148565b92505060206141bf85828601614174565b9150509250929050565b6000819050919050565b6141dc816141c9565b81146141e757600080fd5b50565b6000813590506141f9816141d3565b92915050565b600080fd5b600080fd5b6000601f19601f8301169050919050565b7f4e487b7100000000000000000000000000000000000000000000000000000000600052604160045260246000fd5b61425282614209565b810181811067ffffffffffffffff821117156142715761427061421a565b5b80604052505050565b60006142846140eb565b90506142908282614249565b919050565b600067ffffffffffffffff8211156142b0576142af61421a565b5b6142b982614209565b9050602081019050919050565b82818337600083830152505050565b60006142e86142e384614295565b61427a565b90508281526020810184848401111561430457614303614204565b5b61430f8482856142c6565b509392505050565b600082601f83011261432c5761432b6141ff565b5b813561433c8482602086016142d5565b91505092915050565b6000806000806080858703121561435f5761435e6140f5565b5b600061436d878288016141ea565b945050602085013567ffffffffffffffff81111561438e5761438d6140fa565b5b61439a87828801614317565b935050604085013567ffffffffffffffff8111156143bb576143ba6140fa565b5b6143c787828801614317565b92505060606143d887828801614174565b91505092959194509250565b6000602082840312156143fa576143f96140f5565b5b600061440884828501614148565b91505092915050565b60008115159050919050565b61442681614411565b82525050565b6000602082019050614441600083018461441d565b92915050565b6002811061445457600080fd5b50565b60008135905061446681614447565b92915050565b60008060008060808587031215614486576144856140f5565b5b600061449487828801614148565b94505060206144a587828801614174565b935050604085013567ffffffffffffffff8111156144c6576144c56140fa565b5b6144d287828801614317565b92505060606144e387828801614457565b91505092959194509250565b600081519050919050565b600082825260208201905092915050565b60005b8381101561452957808201518184015260208101905061450e565b60008484015250505050565b6000614540826144ef565b61454a81856144fa565b935061455a81856020860161450b565b61456381614209565b840191505092915050565b6000604082019050614583600083018561441d565b81810360208301526145958184614535565b90509392505050565b600080604083850312156145b5576145b46140f5565b5b60006145c385828601614174565b92505060206145d485828601614174565b9150509250929050565b600060208201905081810360008301526145f88184614535565b905092915050565b600060208284031215614616576146156140f5565b5b6000614624848285016141ea565b91505092915050565b600060208284031215614643576146426140f5565b5b600061465184828501614174565b91505092915050565b600080fd5b600080fd5b60008083601f84011261467a576146796141ff565b5b8235905067ffffffffffffffff8111156146975761469661465a565b5b6020830191508360018202830111156146b3576146b261465f565b5b9250929050565b60006146c5826140ff565b9050919050565b6146d5816146ba565b81146146e057600080fd5b50565b6000813590506146f2816146cc565b92915050565b60008060008060008060008060008060006101408c8e03121561471e5761471d6140f5565b5b600061472c8e828f01614148565b9b5050602061473d8e828f01614174565b9a505060408c013567ffffffffffffffff81111561475e5761475d6140fa565b5b61476a8e828f01614664565b9950995050606061477d8e828f01614457565b975050608061478e8e828f01614174565b96505060a061479f8e828f01614174565b95505060c06147b08e828f01614174565b94505060e06147c18e828f01614148565b9350506101006147d38e828f016146e3565b9250506101208c013567ffffffffffffffff8111156147f5576147f46140fa565b5b6148018e828f01614317565b9150509295989b509295989b9093969950565b6000806040838503121561482b5761482a6140f5565b5b600061483985828601614148565b925050602061484a858286016141ea565b9150509250929050565b60008060006060848603121561486d5761486c6140f5565b5b600061487b868287016141ea565b935050602084013567ffffffffffffffff81111561489c5761489b6140fa565b5b6148a886828701614317565b925050604084013567ffffffffffffffff8111156148c9576148c86140fa565b5b6148d586828701614317565b9150509250925092565b600081519050919050565b600082825260208201905092915050565b6000819050602082019050919050565b6149148161411f565b82525050565b6000614926838361490b565b60208301905092915050565b6000602082019050919050565b600061494a826148df565b61495481856148ea565b935061495f836148fb565b8060005b83811015614990578151614977888261491a565b975061498283614932565b925050600181019050614963565b5085935050505092915050565b600060208201905081810360008301526149b7818461493f565b905092915050565b600080604083850312156149d6576149d56140f5565b5b60006149e485828601614148565b925050602083013567ffffffffffffffff811115614a0557614a046140fa565b5b614a1185828601614317565b9150509250929050565b60008083601f840112614a3157614a306141ff565b5b8235905067ffffffffffffffff811115614a4e57614a4d61465a565b5b602083019150836020820283011115614a6a57614a6961465f565b5b9250929050565b6000806000806000806000806000806101008b8d031215614a9557614a946140f5565b5b60008b013567ffffffffffffffff811115614ab357614ab26140fa565b5b614abf8d828e01614a1b565b9a509a50506020614ad28d828e01614174565b9850506040614ae38d828e01614148565b97505060608b013567ffffffffffffffff811115614b0457614b036140fa565b5b614b108d828e01614664565b96509650506080614b238d828e01614148565b94505060a0614b348d828e01614148565b93505060c0614b458d828e01614174565b92505060e0614b568d828e016146e3565b9150509295989b9194979a5092959850565b614b718161411f565b82525050565b60006040820190508181036000830152614b91818561493f565b9050614ba06020830184614b68565b9392505050565b60008060008060008060008060008060006101408c8e031215614bcd57614bcc6140f5565b5b6000614bdb8e828f01614148565b9b50506020614bec8e828f01614174565b9a505060408c013567ffffffffffffffff811115614c0d57614c0c6140fa565b5b614c198e828f01614664565b99509950506060614c2c8e828f01614457565b9750506080614c3d8e828f01614174565b96505060a0614c4e8e828f01614174565b95505060c0614c5f8e828f01614174565b94505060e0614c708e828f01614148565b935050610100614c828e828f01614148565b925050610120614c948e828f01614174565b9150509295989b509295989b9093969950565b614cb0816141c9565b82525050565b6000602082019050614ccb6000830184614ca7565b92915050565b60008060408385031215614ce857614ce76140f5565b5b6000614cf685828601614148565b9250506020614d0785828601614148565b9150509250929050565b600080600060608486031215614d2a57614d296140f5565b5b6000614d3886828701614148565b9350506020614d4986828701614148565b9250506040614d5a86828701614148565b9150509250925092565b600080600060608486031215614d7d57614d7c6140f5565b5b6000614d8b86828701614148565b9350506020614d9c86828701614148565b9250506040614dad86828701614174565b9150509250925092565b600081519050919050565b600082825260208201905092915050565b6000614dde82614db7565b614de88185614dc2565b9350614df881856020860161450b565b614e0181614209565b840191505092915050565b60006020820190508181036000830152614e268184614dd3565b905092915050565b7f4753323033000000000000000000000000000000000000000000000000000000600082015250565b6000614e64600583614dc2565b9150614e6f82614e2e565b602082019050919050565b60006020820190508181036000830152614e9381614e57565b9050919050565b7f4753323034000000000000000000000000000000000000000000000000000000600082015250565b6000614ed0600583614dc2565b9150614edb82614e9a565b602082019050919050565b60006020820190508181036000830152614eff81614ec3565b9050919050565b7f4e487b7100000000000000000000000000000000000000000000000000000000600052601160045260246000fd5b6000614f40826140b7565b91507fffffffffffffffffffffffffffffffffffffffffffffffffffffffffffffffff8203614f7257614f71614f06565b5b600182019050919050565b6000602082019050614f926000830184614b68565b92915050565b7f4753303230000000000000000000000000000000000000000000000000000000600082015250565b6000614fce600583614dc2565b9150614fd982614f98565b602082019050919050565b60006020820190508181036000830152614ffd81614fc1565b9050919050565b7f4753303237000000000000000000000000000000000000000000000000000000600082015250565b600061503a600583614dc2565b915061504582615004565b602082019050919050565b600060208201905081810360008301526150698161502d565b9050919050565b7f4753303231000000000000000000000000000000000000000000000000000000600082015250565b60006150a6600583614dc2565b91506150b182615070565b602082019050919050565b600060208201905081810360008301526150d581615099565b9050919050565b7f4753303232000000000000000000000000000000000000000000000000000000600082015250565b6000615112600583614dc2565b915061511d826150dc565b602082019050919050565b6000602082019050818103600083015261514181615105565b9050919050565b7f4753303233000000000000000000000000000000000000000000000000000000600082015250565b600061517e600583614dc2565b915061518982615148565b602082019050919050565b600060208201905081810360008301526151ad81615171565b9050919050565b600060408201905081810360008301526151ce8185614535565b905081810360208301526151e28184614535565b90509392505050565b60007fffffffff0000000000000000000000000000000000000000000000000000000082169050919050565b615220816151eb565b811461522b57600080fd5b50565b60008151905061523d81615217565b92915050565b600060208284031215615259576152586140f5565b5b60006152678482850161522e565b91505092915050565b7f4753303234000000000000000000000000000000000000000000000000000000600082015250565b60006152a6600583614dc2565b91506152b182615270565b602082019050919050565b600060208201905081810360008301526152d581615299565b9050919050565b7f4753303235000000000000000000000000000000000000000000000000000000600082015250565b6000615312600583614dc2565b915061531d826152dc565b602082019050919050565b6000602082019050818103600083015261534181615305565b9050919050565b600081905092915050565b7f19457468657265756d205369676e6564204d6573736167653a0a333200000000600082015250565b6000615389601c83615348565b915061539482615353565b601c82019050919050565b6000819050919050565b6153ba6153b5826141c9565b61539f565b82525050565b60006153cb8261537c565b91506153d782846153a9565b60208201915081905092915050565b600060ff82169050919050565b60006153fe826153e6565b9150615409836153e6565b9250828203905060ff81111561542257615421614f06565b5b92915050565b615431816153e6565b82525050565b600060808201905061544c6000830187614ca7565b6154596020830186615428565b6154666040830185614ca7565b6154736060830184614ca7565b95945050505050565b7f4753303236000000000000000000000000000000000000000000000000000000600082015250565b60006154b2600583614dc2565b91506154bd8261547c565b602082019050919050565b600060208201905081810360008301526154e1816154a5565b9050919050565b7f4753313034000000000000000000000000000000000000000000000000000000600082015250565b600061551e600583614dc2565b9150615529826154e8565b602082019050919050565b6000602082019050818103600083015261554d81615511565b9050919050565b600061555f826140b7565b915061556a836140b7565b9250828202615578816140b7565b9150828204841483151761558f5761558e614f06565b5b5092915050565b7f4753313031000000000000000000000000000000000000000000000000000000600082015250565b60006155cc600583614dc2565b91506155d782615596565b602082019050919050565b600060208201905081810360008301526155fb816155bf565b9050919050565b7f4753313032000000000000000000000000000000000000000000000000000000600082015250565b6000615638600583614dc2565b915061564382615602565b602082019050919050565b600060208201905081810360008301526156678161562b565b9050919050565b7f4753323031000000000000000000000000000000000000000000000000000000600082015250565b60006156a4600583614dc2565b91506156af8261566e565b602082019050919050565b600060208201905081810360008301526156d381615697565b9050919050565b7f4753323032000000000000000000000000000000000000000000000000000000600082015250565b6000615710600583614dc2565b915061571b826156da565b602082019050919050565b6000602082019050818103600083015261573f81615703565b9050919050565b600061575283856144fa565b935061575f8385846142c6565b61576883614209565b840190509392505050565b7f4e487b7100000000000000000000000000000000000000000000000000000000600052602160045260246000fd5b600281106157b3576157b2615773565b5b50565b60008190506157c4826157a2565b919050565b60006157d4826157b6565b9050919050565b6157e4816157c9565b82525050565b6157f3816146ba565b82525050565b60006101608201905061580f600083018f614b68565b61581c602083018e6140c1565b818103604083015261582f818c8e615746565b905061583e606083018b6157db565b61584b608083018a6140c1565b61585860a08301896140c1565b61586560c08301886140c1565b61587260e0830187614b68565b6158806101008301866157ea565b8181036101208301526158938185614535565b90506158a3610140830184614b68565b9d9c50505050505050505050505050565b60006158bf826140b7565b91506158ca836140b7565b92508282019050808211156158e2576158e1614f06565b5b92915050565b7f4e487b7100000000000000000000000000000000000000000000000000000000600052601260045260246000fd5b6000615922826140b7565b915061592d836140b7565b92508261593d5761593c6158e8565b5b828204905092915050565b7f4753303130000000000000000000000000000000000000000000000000000000600082015250565b600061597e600583614dc2565b915061598982615948565b602082019050919050565b600060208201905081810360008301526159ad81615971565b9050919050565b60006159bf826140b7565b91506159ca836140b7565b92508282039050818111156159e2576159e1614f06565b5b92915050565b7f4753303133000000000000000000000000000000000000000000000000000000600082015250565b6000615a1e600583614dc2565b9150615a29826159e8565b602082019050919050565b60006020820190508181036000830152615a4d81615a11565b9050919050565b6000604082019050615a696000830185614ca7565b615a7660208301846140c1565b9392505050565b6000604082019050615a926000830185614ca7565b615a9f602083018461441d565b9392505050565b7f4753303031000000000000000000000000000000000000000000000000000000600082015250565b6000615adc600583614dc2565b9150615ae782615aa6565b602082019050919050565b60006020820190508181036000830152615b0b81615acf565b9050919050565b7f4e487b7100000000000000000000000000000000000000000000000000000000600052603260045260246000fd5b6000819050919050565b6000615b5a6020840184614148565b905092915050565b6000602082019050919050565b6000615b7b83856148ea565b9350615b8682615b41565b8060005b85811015615bbf57615b9c8284615b4b565b615ba6888261491a565b9750615bb183615b62565b925050600181019050615b8a565b5085925050509392505050565b60006080820190508181036000830152615be7818789615b6f565b9050615bf660208301866140c1565b615c036040830185614b68565b615c106060830184614b68565b9695505050505050565b7f4753313035000000000000000000000000000000000000000000000000000000600082015250565b6000615c50600583614dc2565b9150615c5b82615c1a565b602082019050919050565b60006020820190508181036000830152615c7f81615c43565b9050919050565b7f4753313036000000000000000000000000000000000000000000000000000000600082015250565b6000615cbc600583614dc2565b9150615cc782615c86565b602082019050919050565b60006020820190508181036000830152615ceb81615caf565b9050919050565b7f4753303330000000000000000000000000000000000000000000000000000000600082015250565b6000615d28600583614dc2565b9150615d3382615cf2565b602082019050919050565b60006020820190508181036000830152615d5781615d1b565b9050919050565b7f4753313033000000000000000000000000000000000000000000000000000000600082015250565b6000615d94600583614dc2565b9150615d9f82615d5e565b602082019050919050565b60006020820190508181036000830152615dc381615d87565b9050919050565b615dd3816151eb565b82525050565b6000602082019050615dee6000830184615dca565b92915050565b615dfd81614411565b8114615e0857600080fd5b50565b600081519050615e1a81615df4565b92915050565b600060208284031215615e3657615e356140f5565b5b6000615e4484828501615e0b565b91505092915050565b7f4753333030000000000000000000000000000000000000000000000000000000600082015250565b6000615e83600583614dc2565b9150615e8e82615e4d565b602082019050919050565b60006020820190508181036000830152615eb281615e76565b9050919050565b7f4753323035000000000000000000000000000000000000000000000000000000600082015250565b6000615eef600583614dc2565b9150615efa82615eb9565b602082019050919050565b60006020820190508181036000830152615f1e81615ee2565b9050919050565b600081905092915050565b6000615f3c8385615f25565b9350615f498385846142c6565b82840190509392505050565b6000615f62828486615f30565b91508190509392505050565b600061016082019050615f84600083018e614ca7565b615f91602083018d614b68565b615f9e604083018c6140c1565b615fab606083018b614ca7565b615fb8608083018a6157db565b615fc560a08301896140c1565b615fd260c08301886140c1565b615fdf60e08301876140c1565b615fed610100830186614b68565b615ffb610120830185614b68565b6160096101408301846140c1565b9c9b505050505050505050505050565b60007fff0000000000000000000000000000000000000000000000000000000000000082169050919050565b6000819050919050565b61606061605b82616019565b616045565b82525050565b6000616072828761604f565b600182019150616082828661604f565b60018201915061609282856153a9565b6020820191506160a282846153a9565b60208201915081905095945050505050565b6000819050919050565b60006160d96160d46160cf846140ff565b6160b4565b6140ff565b9050919050565b60006160eb826160be565b9050919050565b60006160fd826160e0565b9050919050565b61610d816160f2565b82525050565b60006060820190506161286000830186614ca7565b61613560208301856140c1565b6161426040830184616104565b949350505050565b6000616155826140b7565b91506000820361616857616167614f06565b5b600182039050919050565b7f4753303331000000000000000000000000000000000000000000000000000000600082015250565b60006161a9600583614dc2565b91506161b482616173565b602082019050919050565b600060208201905081810360008301526161d88161619c565b9050919050565b7f4753303131000000000000000000000000000000000000000000000000000000600082015250565b6000616215600583614dc2565b9150616220826161df565b602082019050919050565b6000602082019050818103600083015261624481616208565b9050919050565b7f4753303132000000000000000000000000000000000000000000000000000000600082015250565b6000616281600583614dc2565b915061628c8261624b565b602082019050919050565b600060208201905081810360008301526162b081616274565b9050919050565b7f4753323030000000000000000000000000000000000000000000000000000000600082015250565b60006162ed600583614dc2565b91506162f8826162b7565b602082019050919050565b6000602082019050818103600083015261631c816162e0565b9050919050565b7f4753343030000000000000000000000000000000000000000000000000000000600082015250565b6000616359600583614dc2565b915061636482616323565b602082019050919050565b600060208201905081810360008301526163888161634c565b9050919050565b7f4753313030000000000000000000000000000000000000000000000000000000600082015250565b60006163c5600583614dc2565b91506163d08261638f565b602082019050919050565b600060208201905081810360008301526163f4816163b8565b9050919050565b7f4753303032000000000000000000000000000000000000000000000000000000600082015250565b6000616431600583614dc2565b915061643c826163fb565b602082019050919050565b6000602082019050818103600083015261646081616424565b9050919050565b7f4753303030000000000000000000000000000000000000000000000000000000600082015250565b600061649d600583614dc2565b91506164a882616467565b602082019050919050565b600060208201905081810360008301526164cc81616490565b9050919050565b60006040820190506164e86000830185614b68565b6164f560208301846140c1565b939250505056fea2646970667358221220616d6ad233d5bc3fd03d11e85f27e249d351b51aa9c46679e84bd96029a3899964736f6c63430008110033",
  "linkReferences": {},
  "deployedLinkReferences": {}
}